:0B01EA00020A00000208000A010C00DD
:1001D3005389F0438901758A66758CFCC28DD28C74
:0701E300D2AFD2A9C2B9227C
:10015600E4F50DF50E1201D312000820B10830B1F6
:10016600FDE4F50E801420B00830B0FD750E018058
:100176000920B20630B2FD750E02E50C60DDE4F52D
:100186000CE50EB4010A120008AF0D12009A800D9C
:10019600E50EB40208120008AF0D1200F8050D5363
:0401A6000D0780B70A
:03000B000201AA45
:1001AA00C0E0C0D0758A66758CFC050BE50B700241
:1001BA00050AC39509E50A95084009750A00750BF1
:0901CA0000750C01D0D0D0E03228
:05000300D2A0C2A12201
:0501FF00C2A0D2A12204
:05020400D2A2C2A322FA
:05020900C2A2D2A322F5
:0901F600C2A0C2A1C2A2C2A32250
:10009A00EFB4080050579000A7F82828730200BF51
:1000AA000200C70200CD0200D50200DB0200E30213
:1000BA0000E90200F11201F612020980031201F6A8
:1000CA000200031201F612000380031201F6020273
:1000DA00041201F612020480031201F60201FF1251
:0E00EA0001F61201FF80031201F61202092234
:1000F800EFB408005057900105F828287302014F03
:1001080002014702014102013902013302012B02B7
:10011800012502011D1201F612020980031201F6DF
:100128000200031201F612000380031201F6020214
:10013800041201F612020480031201F60201FF12F2
:0E01480001F61201FF80031201F612020922D5
:03000800020209E8
:0300000002000EED
:0C000E00787FE4F6D8FD75810E020055E5
:10001A00020156E493A3F8E493A34003F68001F2A5
:10002A0008DFF48029E493A3F85407240CC8C333E7
:10003A00C4540F4420C8834004F456800146F6DFB6
:10004A00E4800B01020408102040809001EAE47E5B
:10005A00019360BCA3FF543F30E509541FFEE493AB
:10006A00A360010ECF54C025E060A840B8E493A372
:10007A00FAE493A3F8E493A3C8C582C8CAC583CA9D
:10008A00F0A3C8C582C8CAC583CADFE9DEE780BE55
:0101F5000009
:00000001FF
